{
  "_format": "hh-sol-artifact-1",
  "contractName": "Domains",
  "sourceName": "contracts/Domains.sol",
  "abi": [
    {
      "inputs": [
        {
          "internalType": "string",
          "name": "_tld",
          "type": "string"
        }
      ],
      "stateMutability": "payable",
      "type": "constructor"
    },
    {
      "inputs": [],
      "name": "AlreadyRegistered",
      "type": "error"
    },
    {
      "inputs": [
        {
          "internalType": "string",
          "name": "name",
          "type": "string"
        }
      ],
      "name": "InvalidName",
      "type": "error"
    },
    {
      "inputs": [],
      "name": "Unauthorized",
      "type": "error"
    },
    {
      "anonymous": false,
      "inputs": [
        {
          "indexed": true,
          "internalType": "address",
          "name": "owner",
          "type": "address"
        },
        {
          "indexed": true,
          "internalType": "address",
          "name": "approved",
          "type": "address"
        },
        {
          "indexed": true,
          "internalType": "uint256",
          "name": "tokenId",
          "type": "uint256"
        }
      ],
      "name": "Approval",
      "type": "event"
    },
    {
      "anonymous": false,
      "inputs": [
        {
          "indexed": true,
          "internalType": "address",
          "name": "owner",
          "type": "address"
        },
        {
          "indexed": true,
          "internalType": "address",
          "name": "operator",
          "type": "address"
        },
        {
          "indexed": false,
          "internalType": "bool",
          "name": "approved",
          "type": "bool"
        }
      ],
      "name": "ApprovalForAll",
      "type": "event"
    },
    {
      "anonymous": false,
      "inputs": [
        {
          "indexed": true,
          "internalType": "address",
          "name": "from",
          "type": "address"
        },
        {
          "indexed": true,
          "internalType": "address",
          "name": "to",
          "type": "address"
        },
        {
          "indexed": true,
          "internalType": "uint256",
          "name": "tokenId",
          "type": "uint256"
        }
      ],
      "name": "Transfer",
      "type": "event"
    },
    {
      "inputs": [
        {
          "internalType": "address",
          "name": "to",
          "type": "address"
        },
        {
          "internalType": "uint256",
          "name": "tokenId",
          "type": "uint256"
        }
      ],
      "name": "approve",
      "outputs": [],
      "stateMutability": "nonpayable",
      "type": "function"
    },
    {
      "inputs": [
        {
          "internalType": "address",
          "name": "owner",
          "type": "address"
        }
      ],
      "name": "balanceOf",
      "outputs": [
        {
          "internalType": "uint256",
          "name": "",
          "type": "uint256"
        }
      ],
      "stateMutability": "view",
      "type": "function"
    },
    {
      "inputs": [
        {
          "internalType": "string",
          "name": "",
          "type": "string"
        }
      ],
      "name": "bio",
      "outputs": [
        {
          "internalType": "string",
          "name": "",
          "type": "string"
        }
      ],
      "stateMutability": "view",
      "type": "function"
    },
    {
      "inputs": [
        {
          "internalType": "string",
          "name": "",
          "type": "string"
        }
      ],
      "name": "domains",
      "outputs": [
        {
          "internalType": "address",
          "name": "",
          "type": "address"
        }
      ],
      "stateMutability": "view",
      "type": "function"
    },
    {
      "inputs": [
        {
          "internalType": "string",
          "name": "name",
          "type": "string"
        }
      ],
      "name": "getAddress",
      "outputs": [
        {
          "internalType": "address",
          "name": "",
          "type": "address"
        }
      ],
      "stateMutability": "view",
      "type": "function"
    },
    {
      "inputs": [],
      "name": "getAllNames",
      "outputs": [
        {
          "internalType": "string[]",
          "name": "",
          "type": "string[]"
        }
      ],
      "stateMutability": "view",
      "type": "function"
    },
    {
      "inputs": [
        {
          "internalType": "uint256",
          "name": "tokenId",
          "type": "uint256"
        }
      ],
      "name": "getApproved",
      "outputs": [
        {
          "internalType": "address",
          "name": "",
          "type": "address"
        }
      ],
      "stateMutability": "view",
      "type": "function"
    },
    {
      "inputs": [
        {
          "internalType": "string",
          "name": "name",
          "type": "string"
        }
      ],
      "name": "getBio",
      "outputs": [
        {
          "internalType": "string",
          "name": "",
          "type": "string"
        }
      ],
      "stateMutability": "view",
      "type": "function"
    },
    {
      "inputs": [
        {
          "internalType": "string",
          "name": "name",
          "type": "string"
        }
      ],
      "name": "getImage",
      "outputs": [
        {
          "internalType": "string",
          "name": "",
          "type": "string"
        }
      ],
      "stateMutability": "view",
      "type": "function"
    },
    {
      "inputs": [
        {
          "internalType": "string",
          "name": "name",
          "type": "string"
        }
      ],
      "name": "getRecord",
      "outputs": [
        {
          "internalType": "string",
          "name": "",
          "type": "string"
        }
      ],
      "stateMutability": "view",
      "type": "function"
    },
    {
      "inputs": [
        {
          "internalType": "string",
          "name": "name",
          "type": "string"
        }
      ],
      "name": "getUserName",
      "outputs": [
        {
          "internalType": "string",
          "name": "",
          "type": "string"
        }
      ],
      "stateMutability": "view",
      "type": "function"
    },
    {
      "inputs": [
        {
          "internalType": "string",
          "name": "",
          "type": "string"
        }
      ],
      "name": "imageLinks",
      "outputs": [
        {
          "internalType": "string",
          "name": "",
          "type": "string"
        }
      ],
      "stateMutability": "view",
      "type": "function"
    },
    {
      "inputs": [
        {
          "internalType": "address",
          "name": "owner",
          "type": "address"
        },
        {
          "internalType": "address",
          "name": "operator",
          "type": "address"
        }
      ],
      "name": "isApprovedForAll",
      "outputs": [
        {
          "internalType": "bool",
          "name": "",
          "type": "bool"
        }
      ],
      "stateMutability": "view",
      "type": "function"
    },
    {
      "inputs": [],
      "name": "isOwner",
      "outputs": [
        {
          "internalType": "bool",
          "name": "",
          "type": "bool"
        }
      ],
      "stateMutability": "view",
      "type": "function"
    },
    {
      "inputs": [],
      "name": "name",
      "outputs": [
        {
          "internalType": "string",
          "name": "",
          "type": "string"
        }
      ],
      "stateMutability": "view",
      "type": "function"
    },
    {
      "inputs": [
        {
          "internalType": "uint256",
          "name": "",
          "type": "uint256"
        }
      ],
      "name": "names",
      "outputs": [
        {
          "internalType": "string",
          "name": "",
          "type": "string"
        }
      ],
      "stateMutability": "view",
      "type": "function"
    },
    {
      "inputs": [],
      "name": "owner",
      "outputs": [
        {
          "internalType": "address payable",
          "name": "",
          "type": "address"
        }
      ],
      "stateMutability": "view",
      "type": "function"
    },
    {
      "inputs": [
        {
          "internalType": "uint256",
          "name": "tokenId",
          "type": "uint256"
        }
      ],
      "name": "ownerOf",
      "outputs": [
        {
          "internalType": "address",
          "name": "",
          "type": "address"
        }
      ],
      "stateMutability": "view",
      "type": "function"
    },
    {
      "inputs": [
        {
          "internalType": "string",
          "name": "name",
          "type": "string"
        }
      ],
      "name": "price",
      "outputs": [
        {
          "internalType": "uint256",
          "name": "",
          "type": "uint256"
        }
      ],
      "stateMutability": "pure",
      "type": "function"
    },
    {
      "inputs": [
        {
          "internalType": "string",
          "name": "",
          "type": "string"
        }
      ],
      "name": "records",
      "outputs": [
        {
          "internalType": "string",
          "name": "",
          "type": "string"
        }
      ],
      "stateMutability": "view",
      "type": "function"
    },
    {
      "inputs": [
        {
          "internalType": "string",
          "name": "name",
          "type": "string"
        }
      ],
      "name": "register",
      "outputs": [],
      "stateMutability": "payable",
      "type": "function"
    },
    {
      "inputs": [
        {
          "internalType": "address",
          "name": "from",
          "type": "address"
        },
        {
          "internalType": "address",
          "name": "to",
          "type": "address"
        },
        {
          "internalType": "uint256",
          "name": "tokenId",
          "type": "uint256"
        }
      ],
      "name": "safeTransferFrom",
      "outputs": [],
      "stateMutability": "nonpayable",
      "type": "function"
    },
    {
      "inputs": [
        {
          "internalType": "address",
          "name": "from",
          "type": "address"
        },
        {
          "internalType": "address",
          "name": "to",
          "type": "address"
        },
        {
          "internalType": "uint256",
          "name": "tokenId",
          "type": "uint256"
        },
        {
          "internalType": "bytes",
          "name": "_data",
          "type": "bytes"
        }
      ],
      "name": "safeTransferFrom",
      "outputs": [],
      "stateMutability": "nonpayable",
      "type": "function"
    },
    {
      "inputs": [
        {
          "internalType": "address",
          "name": "operator",
          "type": "address"
        },
        {
          "internalType": "bool",
          "name": "approved",
          "type": "bool"
        }
      ],
      "name": "setApprovalForAll",
      "outputs": [],
      "stateMutability": "nonpayable",
      "type": "function"
    },
    {
      "inputs": [
        {
          "internalType": "string",
          "name": "name",
          "type": "string"
        },
        {
          "internalType": "string",
          "name": "aboutMe",
          "type": "string"
        }
      ],
      "name": "setBio",
      "outputs": [],
      "stateMutability": "nonpayable",
      "type": "function"
    },
    {
      "inputs": [
        {
          "internalType": "string",
          "name": "name",
          "type": "string"
        },
        {
          "internalType": "string",
          "name": "link",
          "type": "string"
        }
      ],
      "name": "setImage",
      "outputs": [],
      "stateMutability": "nonpayable",
      "type": "function"
    },
    {
      "inputs": [
        {
          "internalType": "string",
          "name": "name",
          "type": "string"
        },
        {
          "internalType": "string",
          "name": "record",
          "type": "string"
        }
      ],
      "name": "setRecord",
      "outputs": [],
      "stateMutability": "nonpayable",
      "type": "function"
    },
    {
      "inputs": [
        {
          "internalType": "string",
          "name": "name",
          "type": "string"
        },
        {
          "internalType": "string",
          "name": "user",
          "type": "string"
        }
      ],
      "name": "setUserName",
      "outputs": [],
      "stateMutability": "nonpayable",
      "type": "function"
    },
    {
      "inputs": [
        {
          "internalType": "bytes4",
          "name": "interfaceId",
          "type": "bytes4"
        }
      ],
      "name": "supportsInterface",
      "outputs": [
        {
          "internalType": "bool",
          "name": "",
          "type": "bool"
        }
      ],
      "stateMutability": "view",
      "type": "function"
    },
    {
      "inputs": [],
      "name": "symbol",
      "outputs": [
        {
          "internalType": "string",
          "name": "",
          "type": "string"
        }
      ],
      "stateMutability": "view",
      "type": "function"
    },
    {
      "inputs": [],
      "name": "tld",
      "outputs": [
        {
          "internalType": "string",
          "name": "",
          "type": "string"
        }
      ],
      "stateMutability": "view",
      "type": "function"
    },
    {
      "inputs": [
        {
          "internalType": "uint256",
          "name": "tokenId",
          "type": "uint256"
        }
      ],
      "name": "tokenURI",
      "outputs": [
        {
          "internalType": "string",
          "name": "",
          "type": "string"
        }
      ],
      "stateMutability": "view",
      "type": "function"
    },
    {
      "inputs": [
        {
          "internalType": "address",
          "name": "from",
          "type": "address"
        },
        {
          "internalType": "address",
          "name": "to",
          "type": "address"
        },
        {
          "internalType": "uint256",
          "name": "tokenId",
          "type": "uint256"
        }
      ],
      "name": "transferFrom",
      "outputs": [],
      "stateMutability": "nonpayable",
      "type": "function"
    },
    {
      "inputs": [
        {
          "internalType": "string",
          "name": "",
          "type": "string"
        }
      ],
      "name": "userName",
      "outputs": [
        {
          "internalType": "string",
          "name": "",
          "type": "string"
        }
      ],
      "stateMutability": "view",
      "type": "function"
    },
    {
      "inputs": [
        {
          "internalType": "string",
          "name": "name",
          "type": "string"
        }
      ],
      "name": "valid",
      "outputs": [
        {
          "internalType": "bool",
          "name": "",
          "type": "bool"
        }
      ],
      "stateMutability": "pure",
      "type": "function"
    },
    {
      "inputs": [],
      "name": "withdraw",
      "outputs": [],
      "stateMutability": "nonpayable",
      "type": "function"
    }
  ],
  "bytecode": "0x6080604052604051806107800160405280610746815260200162005f0d610746913960089080519060200190620000389291906200035a565b506040518060400160405280600d81526020017f3c2f746578743e3c2f7376673e0000000000000000000000000000000000000081525060099080519060200190620000869291906200035a565b5060405162006653380380620066538339818101604052810190620000ac9190620005a7565b6040518060400160405280601281526020017f5761676d69204e616d65205365727669636500000000000000000000000000008152506040518060400160405280600381526020017f574e5300000000000000000000000000000000000000000000000000000000008152508160009080519060200190620001309291906200035a565b508060019080519060200190620001499291906200035a565b50505033601160006101000a81548173ffffffffffffffffffffffffffffffffffffffff021916908373ffffffffffffffffffffffffffffffffffffffff16021790555080600a9080519060200190620001a59291906200035a565b50620002846040518060400160405280601881526020017f2573206e616d652073657276696365206465706c6f7965640000000000000000815250600a8054620001ef9062000627565b80601f01602080910402602001604051908101604052809291908181526020018280546200021d9062000627565b80156200026e5780601f1062000242576101008083540402835291602001916200026e565b820191906000526020600020905b8154815290600101906020018083116200025057829003601f168201915b50505050506200028b60201b620025a91760201c565b50620006f5565b6200032d8282604051602401620002a4929190620006ba565b6040516020818303038152906040527f4b5c4277000000000000000000000000000000000000000000000000000000007bffffffffffffffffffffffffffffffffffffffffffffffffffffffff19166020820180517bffffffffffffffffffffffffffffffffffffffffffffffffffffffff83818316178352505050506200033160201b60201c565b5050565b60008151905060006a636f6e736f6c652e6c6f679050602083016000808483855afa5050505050565b828054620003689062000627565b90600052602060002090601f0160209004810192826200038c5760008555620003d8565b82601f10620003a757805160ff1916838001178555620003d8565b82800160010185558215620003d8579182015b82811115620003d7578251825591602001919060010190620003ba565b5b509050620003e79190620003eb565b5090565b5b8082111562000406576000816000905550600101620003ec565b5090565b6000604051905090565b600080fd5b600080fd5b600080fd5b600080fd5b6000601f19601f8301169050919050565b7f4e487b7100000000000000000000000000000000000000000000000000000000600052604160045260246000fd5b620004738262000428565b810181811067ffffffffffffffff8211171562000495576200049462000439565b5b80604052505050565b6000620004aa6200040a565b9050620004b8828262000468565b919050565b600067ffffffffffffffff821115620004db57620004da62000439565b5b620004e68262000428565b9050602081019050919050565b60005b8381101562000513578082015181840152602081019050620004f6565b8381111562000523576000848401525b50505050565b6000620005406200053a84620004bd565b6200049e565b9050828152602081018484840111156200055f576200055e62000423565b5b6200056c848285620004f3565b509392505050565b600082601f8301126200058c576200058b6200041e565b5b81516200059e84826020860162000529565b91505092915050565b600060208284031215620005c057620005bf62000414565b5b600082015167ffffffffffffffff811115620005e157620005e062000419565b5b620005ef8482850162000574565b91505092915050565b7f4e487b7100000000000000000000000000000000000000000000000000000000600052602260045260246000fd5b600060028204905060018216806200064057607f821691505b60208210811415620006575762000656620005f8565b5b50919050565b600081519050919050565b600082825260208201905092915050565b600062000686826200065d565b62000692818562000668565b9350620006a4818560208601620004f3565b620006af8162000428565b840191505092915050565b60006040820190508181036000830152620006d6818562000679565b90508181036020830152620006ec818462000679565b90509392505050565b61580880620007056000396000f3fe60806040526004361061020f5760003560e01c80637228c6e011610118578063c4e1750b116100a0578063e985e9c51161006f578063e985e9c514610843578063f2c298be14610880578063fa80d06b1461089c578063fb825e5f146108d9578063fe2c6198146109045761020f565b8063c4e1750b14610777578063c7330871146107a0578063c87b56dd146107c9578063e802bf7d146108065761020f565b80639791c097116100e75780639791c09714610682578063a22cb465146106bf578063b88d4fde146106e8578063bf40fac114610711578063c1880a981461074e5761020f565b80637228c6e0146105c45780638da5cb5b146106015780638f32d59b1461062c57806395d89b41146106575761020f565b80633ccfd60b1161019b5780636352211e1161016a5780636352211e146104a757806364664156146104e4578063653037b51461052157806369637db81461054a57806370a08231146105875761020f565b80633ccfd60b146103ed57806342842e0e146104045780634622ab031461042d578063541e771d1461046a5761020f565b806311dd8845116101e257806311dd8845146102e257806317e754661461031f57806323b872dd1461035c57806326449235146103855780632d551432146103c25761020f565b806301ffc9a71461021457806306fdde0314610251578063081812fc1461027c578063095ea7b3146102b9575b600080fd5b34801561022057600080fd5b5061023b60048036038101906102369190613b2a565b610941565b6040516102489190613b72565b60405180910390f35b34801561025d57600080fd5b50610266610a23565b6040516102739190613c26565b60405180910390f35b34801561028857600080fd5b506102a3600480360381019061029e9190613c7e565b610ab5565b6040516102b09190613cec565b60405180910390f35b3480156102c557600080fd5b506102e060048036038101906102db9190613d33565b610b3a565b005b3480156102ee57600080fd5b5061030960048036038101906103049190613dd8565b610c52565b6040516103169190613c26565b60405180910390f35b34801561032b57600080fd5b5061034660048036038101906103419190613dd8565b610d05565b6040516103539190613c26565b60405180910390f35b34801561036857600080fd5b50610383600480360381019061037e9190613e25565b610db8565b005b34801561039157600080fd5b506103ac60048036038101906103a79190613fa8565b610e18565b6040516103b99190613cec565b60405180910390f35b3480156103ce57600080fd5b506103d7610e61565b6040516103e49190613c26565b60405180910390f35b3480156103f957600080fd5b50610402610eef565b005b34801561041057600080fd5b5061042b60048036038101906104269190613e25565b610fb5565b005b34801561043957600080fd5b50610454600480360381019061044f9190613c7e565b610fd5565b6040516104619190613c26565b60405180910390f35b34801561047657600080fd5b50610491600480360381019061048c9190613fa8565b611075565b60405161049e9190613c26565b60405180910390f35b3480156104b357600080fd5b506104ce60048036038101906104c99190613c7e565b61112b565b6040516104db9190613cec565b60405180910390f35b3480156104f057600080fd5b5061050b60048036038101906105069190613fa8565b6111dd565b6040516105189190613c26565b60405180910390f35b34801561052d57600080fd5b5061054860048036038101906105439190613ff1565b611293565b005b34801561055657600080fd5b50610571600480360381019061056c9190613fa8565b61136e565b60405161057e9190613c26565b60405180910390f35b34801561059357600080fd5b506105ae60048036038101906105a99190614072565b611424565b6040516105bb91906140ae565b60405180910390f35b3480156105d057600080fd5b506105eb60048036038101906105e69190613dd8565b6114dc565b6040516105f89190613c26565b60405180910390f35b34801561060d57600080fd5b5061061661158f565b60405161062391906140ea565b60405180910390f35b34801561063857600080fd5b506106416115b5565b60405161064e9190613b72565b60405180910390f35b34801561066357600080fd5b5061066c61160d565b6040516106799190613c26565b60405180910390f35b34801561068e57600080fd5b506106a960048036038101906106a49190613dd8565b61169f565b6040516106b69190613b72565b60405180910390f35b3480156106cb57600080fd5b506106e660048036038101906106e19190614131565b611753565b005b3480156106f457600080fd5b5061070f600480360381019061070a9190614212565b611769565b005b34801561071d57600080fd5b5061073860048036038101906107339190613dd8565b6117cb565b6040516107459190613cec565b60405180910390f35b34801561075a57600080fd5b5061077560048036038101906107709190613ff1565b611816565b005b34801561078357600080fd5b5061079e60048036038101906107999190613ff1565b6118f1565b005b3480156107ac57600080fd5b506107c760048036038101906107c29190613ff1565b6119cc565b005b3480156107d557600080fd5b506107f060048036038101906107eb9190613c7e565b611aa7565b6040516107fd9190613c26565b60405180910390f35b34801561081257600080fd5b5061082d60048036038101906108289190613dd8565b611bf9565b60405161083a9190613c26565b60405180910390f35b34801561084f57600080fd5b5061086a60048036038101906108659190614295565b611cac565b6040516108779190613b72565b60405180910390f35b61089a60048036038101906108959190613dd8565b611d40565b005b3480156108a857600080fd5b506108c360048036038101906108be9190613fa8565b61226f565b6040516108d09190613c26565b60405180910390f35b3480156108e557600080fd5b506108ee612325565b6040516108fb91906143e1565b60405180910390f35b34801561091057600080fd5b5061092b60048036038101906109269190613dd8565b612503565b60405161093891906140ae565b60405180910390f35b60007f80ac58cd000000000000000000000000000000000000000000000000000000007bffffffffffffffffffffffffffffffffffffffffffffffffffffffff1916827bffffffffffffffffffffffffffffffffffffffffffffffffffffffff19161480610a0c57507f5b5e139f000000000000000000000000000000000000000000000000000000007bffffffffffffffffffffffffffffffffffffffffffffffffffffffff1916827bffffffffffffffffffffffffffffffffffffffffffffffffffffffff1916145b80610a1c5750610a1b82612645565b5b9050919050565b606060008054610a3290614432565b80601f0160208091040260200160405190810160405280929190818152602001828054610a5e90614432565b8015610aab5780601f10610a8057610100808354040283529160200191610aab565b820191906000526020600020905b815481529060010190602001808311610a8e57829003601f168201915b5050505050905090565b6000610ac0826126af565b610aff576040517f08c379a0000000000000000000000000000000000000000000000000000000008152600401610af6906144d6565b60405180910390fd5b6004600083815260200190815260200160002060009054906101000a900473ffffffffffffffffffffffffffffffffffffffff169050919050565b6000610b458261112b565b90508073ffffffffffffffffffffffffffffffffffffffff168373ffffffffffffffffffffffffffffffffffffffff161415610bb6576040517f08c379a0000000000000000000000000000000000000000000000000000000008152600401610bad90614568565b60405180910390fd5b8073ffffffffffffffffffffffffffffffffffffffff16610bd561271b565b73ffffffffffffffffffffffffffffffffffffffff161480610c045750610c0381610bfe61271b565b611cac565b5b610c43576040517f08c379a0000000000000000000000000000000000000000000000000000000008152600401610c3a906145fa565b60405180910390fd5b610c4d8383612723565b505050565b6060600c8383604051610c6692919061464a565b90815260200160405180910390208054610c7f90614432565b80601f0160208091040260200160405190810160405280929190818152602001828054610cab90614432565b8015610cf85780601f10610ccd57610100808354040283529160200191610cf8565b820191906000526020600020905b815481529060010190602001808311610cdb57829003601f168201915b5050505050905092915050565b6060600e8383604051610d1992919061464a565b90815260200160405180910390208054610d3290614432565b80601f0160208091040260200160405190810160405280929190818152602001828054610d5e90614432565b8015610dab5780601f10610d8057610100808354040283529160200191610dab565b820191906000526020600020905b815481529060010190602001808311610d8e57829003601f168201915b5050505050905092915050565b610dc9610dc361271b565b826127dc565b610e08576040517f08c379a0000000000000000000000000000000000000000000000000000000008152600401610dff906146d5565b60405180910390fd5b610e138383836128ba565b505050565b600b818051602081018201805184825260208301602085012081835280955050505050506000915054906101000a900473ffffffffffffffffffffffffffffffffffffffff1681565b600a8054610e6e90614432565b80601f0160208091040260200160405190810160405280929190818152602001828054610e9a90614432565b8015610ee75780601f10610ebc57610100808354040283529160200191610ee7565b820191906000526020600020905b815481529060010190602001808311610eca57829003601f168201915b505050505081565b610ef76115b5565b610f0057600080fd5b600047905060003373ffffffffffffffffffffffffffffffffffffffff1682604051610f2b90614726565b60006040518083038185875af1925050503d8060008114610f68576040519150601f19603f3d011682016040523d82523d6000602084013e610f6d565b606091505b5050905080610fb1576040517f08c379a0000000000000000000000000000000000000000000000000000000008152600401610fa890614787565b60405180910390fd5b5050565b610fd083838360405180602001604052806000815250611769565b505050565b60106020528060005260406000206000915090508054610ff490614432565b80601f016020809104026020016040519081016040528092919081815260200182805461102090614432565b801561106d5780601f106110425761010080835404028352916020019161106d565b820191906000526020600020905b81548152906001019060200180831161105057829003601f168201915b505050505081565b600c8180516020810182018051848252602083016020850120818352809550505050505060009150905080546110aa90614432565b80601f01602080910402602001604051908101604052809291908181526020018280546110d690614432565b80156111235780601f106110f857610100808354040283529160200191611123565b820191906000526020600020905b81548152906001019060200180831161110657829003601f168201915b505050505081565b6000806002600084815260200190815260200160002060009054906101000a900473ffffffffffffffffffffffffffffffffffffffff169050600073ffffffffffffffffffffffffffffffffffffffff168173ffffffffffffffffffffffffffffffffffffffff1614156111d4576040517f08c379a00000000000000000000000000000000000000000000000000000000081526004016111cb90614819565b60405180910390fd5b80915050919050565b600f81805160208101820180518482526020830160208501208183528095505050505050600091509050805461121290614432565b80601f016020809104026020016040519081016040528092919081815260200182805461123e90614432565b801561128b5780601f106112605761010080835404028352916020019161128b565b820191906000526020600020905b81548152906001019060200180831161126e57829003601f168201915b505050505081565b600b84846040516112a592919061464a565b908152602001604051809103902060009054906101000a900473ffffffffffffffffffffffffffffffffffffffff1673ffffffffffffffffffffffffffffffffffffffff163373ffffffffffffffffffffffffffffffffffffffff1614611338576040517f82b4290000000000000000000000000000000000000000000000000000000000815260040160405180910390fd5b8181600e868660405161134c92919061464a565b90815260200160405180910390209190611367929190613995565b5050505050565b600e8180516020810182018051848252602083016020850120818352809550505050505060009150905080546113a390614432565b80601f01602080910402602001604051908101604052809291908181526020018280546113cf90614432565b801561141c5780601f106113f15761010080835404028352916020019161141c565b820191906000526020600020905b8154815290600101906020018083116113ff57829003601f168201915b505050505081565b60008073ffffffffffffffffffffffffffffffffffffffff168273ffffffffffffffffffffffffffffffffffffffff161415611495576040517f08c379a000000000000000000000000000000000000000000000000000000000815260040161148c906148ab565b60405180910390fd5b600360008373ffffffffffffffffffffffffffffffffffffffff1673ffffffffffffffffffffffffffffffffffffffff168152602001908152602001600020549050919050565b6060600f83836040516114f092919061464a565b9081526020016040518091039020805461150990614432565b80601f016020809104026020016040519081016040528092919081815260200182805461153590614432565b80156115825780601f1061155757610100808354040283529160200191611582565b820191906000526020600020905b81548152906001019060200180831161156557829003601f168201915b5050505050905092915050565b601160009054906101000a900473ffffffffffffffffffffffffffffffffffffffff1681565b6000601160009054906101000a900473ffffffffffffffffffffffffffffffffffffffff1673ffffffffffffffffffffffffffffffffffffffff163373ffffffffffffffffffffffffffffffffffffffff1614905090565b60606001805461161c90614432565b80601f016020809104026020016040519081016040528092919081815260200182805461164890614432565b80156116955780601f1061166a57610100808354040283529160200191611695565b820191906000526020600020905b81548152906001019060200180831161167857829003601f168201915b5050505050905090565b600060036116f084848080601f016020809104026020016040519081016040528093929190818152602001838380828437600081840152601f19601f82011690508083019250505050505050612b21565b1015801561174b5750600a61174884848080601f016020809104026020016040519081016040528093929190818152602001838380828437600081840152601f19601f82011690508083019250505050505050612b21565b11155b905092915050565b61176561175e61271b565b8383612cd6565b5050565b61177a61177461271b565b836127dc565b6117b9576040517f08c379a00000000000000000000000000000000000000000000000000000000081526004016117b0906146d5565b60405180910390fd5b6117c584848484612e43565b50505050565b6000600b83836040516117df92919061464a565b908152602001604051809103902060009054906101000a900473ffffffffffffffffffffffffffffffffffffffff16905092915050565b600b848460405161182892919061464a565b908152602001604051809103902060009054906101000a900473ffffffffffffffffffffffffffffffffffffffff1673ffffffffffffffffffffffffffffffffffffffff163373ffffffffffffffffffffffffffffffffffffffff16146118bb576040517f82b4290000000000000000000000000000000000000000000000000000000000815260040160405180910390fd5b8181600c86866040516118cf92919061464a565b908152602001604051809103902091906118ea929190613995565b5050505050565b600b848460405161190392919061464a565b908152602001604051809103902060009054906101000a900473ffffffffffffffffffffffffffffffffffffffff1673ffffffffffffffffffffffffffffffffffffffff163373ffffffffffffffffffffffffffffffffffffffff1614611996576040517f82b4290000000000000000000000000000000000000000000000000000000000815260040160405180910390fd5b8181600d86866040516119aa92919061464a565b908152602001604051809103902091906119c5929190613995565b5050505050565b600b84846040516119de92919061464a565b908152602001604051809103902060009054906101000a900473ffffffffffffffffffffffffffffffffffffffff1673ffffffffffffffffffffffffffffffffffffffff163373ffffffffffffffffffffffffffffffffffffffff1614611a71576040517f82b4290000000000000000000000000000000000000000000000000000000000815260040160405180910390fd5b8181600f8686604051611a8592919061464a565b90815260200160405180910390209190611aa0929190613995565b5050505050565b6060611ab2826126af565b611af1576040517f08c379a0000000000000000000000000000000000000000000000000000000008152600401611ae89061493d565b60405180910390fd5b6000600660008481526020019081526020016000208054611b1190614432565b80601f0160208091040260200160405190810160405280929190818152602001828054611b3d90614432565b8015611b8a5780601f10611b5f57610100808354040283529160200191611b8a565b820191906000526020600020905b815481529060010190602001808311611b6d57829003601f168201915b505050505090506000611b9b612e9f565b9050600081511415611bb1578192505050611bf4565b600082511115611be6578082604051602001611bce92919061498e565b60405160208183030381529060405292505050611bf4565b611bef84612eb6565b925050505b919050565b6060600d8383604051611c0d92919061464a565b90815260200160405180910390208054611c2690614432565b80601f0160208091040260200160405190810160405280929190818152602001828054611c5290614432565b8015611c9f5780601f10611c7457610100808354040283529160200191611c9f565b820191906000526020600020905b815481529060010190602001808311611c8257829003601f168201915b5050505050905092915050565b6000600560008473ffffffffffffffffffffffffffffffffffffffff1673ffffffffffffffffffffffffffffffffffffffff16815260200190815260200160002060008373ffffffffffffffffffffffffffffffffffffffff1673ffffffffffffffffffffffffffffffffffffffff16815260200190815260200160002060009054906101000a900460ff16905092915050565b600073ffffffffffffffffffffffffffffffffffffffff16600b8383604051611d6a92919061464a565b908152602001604051809103902060009054906101000a900473ffffffffffffffffffffffffffffffffffffffff1673ffffffffffffffffffffffffffffffffffffffff1614611de6576040517f3a81d6fc00000000000000000000000000000000000000000000000000000000815260040160405180910390fd5b611df0828261169f565b611e335781816040517f7f19f48d000000000000000000000000000000000000000000000000000000008152600401611e2a9291906149df565b60405180910390fd5b60003073ffffffffffffffffffffffffffffffffffffffff1663fe2c619884846040518363ffffffff1660e01b8152600401611e709291906149df565b602060405180830381865afa158015611e8d573d6000803e3d6000fd5b505050506040513d601f19601f82011682018060405250810190611eb19190614a18565b905080341015611ef6576040517f08c379a0000000000000000000000000000000000000000000000000000000008152600401611eed90614a91565b60405180910390fd5b60008383600a604051602001611f0e93929190614b91565b604051602081830303815290604052905060006008826009604051602001611f3893929190614bc2565b60405160208183030381529060405290506000611f556007612f5d565b90506000611fa687878080601f016020809104026020016040519081016040528093929190818152602001838380828437600081840152601f19601f82011690508083019250505050505050612b21565b90506000611fb382612f6b565b90506120a76040518060600160405280603181526020016157296031913989898080601f016020809104026020016040519081016040528093929190818152602001838380828437600081840152601f19601f82011690508083019250505050505050600a805461202390614432565b80601f016020809104026020016040519081016040528092919081815260200182805461204f90614432565b801561209c5780601f106120715761010080835404028352916020019161209c565b820191906000526020600020905b81548152906001019060200180831161207f57829003601f168201915b5050505050866130cc565b60006120dd866120b68761316e565b846040516020016120c993929190614d6f565b60405160208183030381529060405261316e565b90506000816040516020016120f29190614e18565b60405160208183030381529060405290506121246040518060600160405280603981526020016156f060399139613306565b6121636040518060400160405280600e81526020017f46696e616c20746f6b656e555249000000000000000000000000000000000000815250826125a9565b61218460405180606001604052806039815260200161575a60399139613306565b61218e338661339f565b61219885826133bd565b33600b8b8b6040516121ab92919061464a565b908152602001604051809103902060006101000a81548173ffffffffffffffffffffffffffffffffffffffff021916908373ffffffffffffffffffffffffffffffffffffffff1602179055508989601060008881526020019081526020016000209190612219929190613995565b506122246007613431565b6122636040518060400160405280601b81526020017f2573206861732072656769737465726564206120646f6d61696e21000000000081525033613447565b50505050505050505050565b600d8180516020810182018051848252602083016020850120818352809550505050505060009150905080546122a490614432565b80601f01602080910402602001604051908101604052809291908181526020018280546122d090614432565b801561231d5780601f106122f25761010080835404028352916020019161231d565b820191906000526020600020905b81548152906001019060200180831161230057829003601f168201915b505050505081565b60606123656040518060400160405280601f81526020017f47657474696e6720616c6c206e616d65732066726f6d20636f6e747261637400815250613306565b60006123716007612f5d565b67ffffffffffffffff81111561238a57612389613e7d565b5b6040519080825280602002602001820160405280156123bd57816020015b60608152602001906001900390816123a85790505b50905060005b6123cd6007612f5d565b8110156124fb576010600082815260200190815260200160002080546123f290614432565b80601f016020809104026020016040519081016040528092919081815260200182805461241e90614432565b801561246b5780601f106124405761010080835404028352916020019161246b565b820191906000526020600020905b81548152906001019060200180831161244e57829003601f168201915b505050505082828151811061248357612482614e3a565b5b60200260200101819052506124e86040518060400160405280601781526020017f4e616d6520666f7220746f6b656e202564206973202573000000000000000000815250828484815181106124db576124da614e3a565b5b60200260200101516134e3565b80806124f390614e98565b9150506123c3565b508091505090565b60008061255384848080601f016020809104026020016040519081016040528093929190818152602001838380828437600081840152601f19601f82011690508083019250505050505050612b21565b90506000811161256257600080fd5b600381141561257c576706f05b59d3b200009150506125a3565b600481141561259657670214e8348c4f00009150506125a3565b67016345785d8a00009150505b92915050565b61264182826040516024016125bf929190614ee1565b6040516020818303038152906040527f4b5c4277000000000000000000000000000000000000000000000000000000007bffffffffffffffffffffffffffffffffffffffffffffffffffffffff19166020820180517bffffffffffffffffffffffffffffffffffffffffffffffffffffffff8381831617835250505050613582565b5050565b60007f01ffc9a7000000000000000000000000000000000000000000000000000000007bffffffffffffffffffffffffffffffffffffffffffffffffffffffff1916827bffffffffffffffffffffffffffffffffffffffffffffffffffffffff1916149050919050565b60008073ffffffffffffffffffffffffffffffffffffffff166002600084815260200190815260200160002060009054906101000a900473ffffffffffffffffffffffffffffffffffffffff1673ffffffffffffffffffffffffffffffffffffffff1614159050919050565b600033905090565b816004600083815260200190815260200160002060006101000a81548173ffffffffffffffffffffffffffffffffffffffff021916908373ffffffffffffffffffffffffffffffffffffffff160217905550808273ffffffffffffffffffffffffffffffffffffffff166127968361112b565b73ffffffffffffffffffffffffffffffffffffffff167f8c5be1e5ebec7d5bd14f71427d1e84f3dd0314c0f7b2291e5b200ac8c7c3b92560405160405180910390a45050565b60006127e7826126af565b612826576040517f08c379a000000000000000000000000000000000000000000000000000000000815260040161281d90614f8a565b60405180910390fd5b60006128318361112b565b90508073ffffffffffffffffffffffffffffffffffffffff168473ffffffffffffffffffffffffffffffffffffffff1614806128a057508373ffffffffffffffffffffffffffffffffffffffff1661288884610ab5565b73ffffffffffffffffffffffffffffffffffffffff16145b806128b157506128b08185611cac565b5b91505092915050565b8273ffffffffffffffffffffffffffffffffffffffff166128da8261112b565b73ffffffffffffffffffffffffffffffffffffffff1614612930576040517f08c379a00000000000000000000000000000000000000000000000000000000081526004016129279061501c565b60405180910390fd5b600073ffffffffffffffffffffffffffffffffffffffff168273ffffffffffffffffffffffffffffffffffffffff1614156129a0576040517f08c379a0000000000000000000000000000000000000000000000000000000008152600401612997906150ae565b60405180910390fd5b6129ab8383836135ab565b6129b6600082612723565b6001600360008573ffffffffffffffffffffffffffffffffffffffff1673ffffffffffffffffffffffffffffffffffffffff1681526020019081526020016000206000828254612a0691906150ce565b925050819055506001600360008473ffffffffffffffffffffffffffffffffffffffff1673ffffffffffffffffffffffffffffffffffffffff1681526020019081526020016000206000828254612a5d9190615102565b92505081905550816002600083815260200190815260200160002060006101000a81548173ffffffffffffffffffffffffffffffffffffffff021916908373ffffffffffffffffffffffffffffffffffffffff160217905550808273ffffffffffffffffffffffffffffffffffffffff168473ffffffffffffffffffffffffffffffffffffffff167fddf252ad1be2c89b69c2b068fc378daa952ba7f163c4a11628f55a4df523b3ef60405160405180910390a4612b1c8383836135b0565b505050565b60008060008084519050600092505b80821015612ccb576000858381518110612b4d57612b4c614e3a565b5b602001015160f81c60f81b9050608060f81b817effffffffffffffffffffffffffffffffffffffffffffffffffffffffffffff19161015612b9c57600183612b959190615102565b9250612cb7565b60e060f81b817effffffffffffffffffffffffffffffffffffffffffffffffffffffffffffff19161015612bde57600283612bd79190615102565b9250612cb6565b60f060f81b817effffffffffffffffffffffffffffffffffffffffffffffffffffffffffffff19161015612c2057600383612c199190615102565b9250612cb5565b60f8801b817effffffffffffffffffffffffffffffffffffffffffffffffffffffffffffff19161015612c6157600483612c5a9190615102565b9250612cb4565b60fc60f81b817effffffffffffffffffffffffffffffffffffffffffffffffffffffffffffff19161015612ca357600583612c9c9190615102565b9250612cb3565b600683612cb09190615102565b92505b5b5b5b5b508280612cc390614e98565b935050612b30565b829350505050919050565b8173ffffffffffffffffffffffffffffffffffffffff168373ffffffffffffffffffffffffffffffffffffffff161415612d45576040517f08c379a0000000000000000000000000000000000000000000000000000000008152600401612d3c906151a4565b60405180910390fd5b80600560008573ffffffffffffffffffffffffffffffffffffffff1673ffffffffffffffffffffffffffffffffffffffff16815260200190815260200160002060008473ffffffffffffffffffffffffffffffffffffffff1673ffffffffffffffffffffffffffffffffffffffff16815260200190815260200160002060006101000a81548160ff0219169083151502179055508173ffffffffffffffffffffffffffffffffffffffff168373ffffffffffffffffffffffffffffffffffffffff167f17307eab39ab6107e8899845ad3d59bd9653f200f220920489ca2b5937696c3183604051612e369190613b72565b60405180910390a3505050565b612e4e8484846128ba565b612e5a848484846135b5565b612e99576040517f08c379a0000000000000000000000000000000000000000000000000000000008152600401612e9090615236565b60405180910390fd5b50505050565b606060405180602001604052806000815250905090565b6060612ec1826126af565b612f00576040517f08c379a0000000000000000000000000000000000000000000000000000000008152600401612ef7906152c8565b60405180910390fd5b6000612f0a612e9f565b90506000815111612f2a5760405180602001604052806000815250612f55565b80612f3484612f6b565b604051602001612f4592919061498e565b6040516020818303038152906040525b915050919050565b600081600001549050919050565b60606000821415612fb3576040518060400160405280600181526020017f300000000000000000000000000000000000000000000000000000000000000081525090506130c7565b600082905060005b60008214612fe5578080612fce90614e98565b915050600a82612fde9190615317565b9150612fbb565b60008167ffffffffffffffff81111561300157613000613e7d565b5b6040519080825280601f01601f1916602001820160405280156130335781602001600182028036833780820191505090505b5090505b600085146130c05760018261304c91906150ce565b9150600a8561305b9190615348565b60306130679190615102565b60f81b81838151811061307d5761307c614e3a565b5b60200101907effffffffffffffffffffffffffffffffffffffffffffffffffffffffffffff1916908160001a905350600a856130b99190615317565b9450613037565b8093505050505b919050565b613168848484846040516024016130e69493929190615379565b6040516020818303038152906040527f9fd009f5000000000000000000000000000000000000000000000000000000007bffffffffffffffffffffffffffffffffffffffffffffffffffffffff19166020820180517bffffffffffffffffffffffffffffffffffffffffffffffffffffffff8381831617835250505050613582565b50505050565b606060008251905060008114156131975760405180602001604052806000815250915050613301565b600060036002836131a89190615102565b6131b29190615317565b60046131be91906153d3565b905060006020826131cf9190615102565b67ffffffffffffffff8111156131e8576131e7613e7d565b5b6040519080825280601f01601f19166020018201604052801561321a5781602001600182028036833780820191505090505b5090506000604051806060016040528060408152602001615793604091399050600181016020830160005b868110156132be5760038101905062ffffff818a015116603f8160121c168401518060081b905060ff603f83600c1c1686015116810190508060081b905060ff603f8360061c1686015116810190508060081b905060ff603f831686015116810190508060e01b90508084526004840193505050613245565b5060038606600181146132d857600281146132e8576132f3565b613d3d60f01b60028303526132f3565b603d60f81b60018303525b508484525050819450505050505b919050565b61339c8160405160240161331a9190613c26565b6040516020818303038152906040527f41304fac000000000000000000000000000000000000000000000000000000007bffffffffffffffffffffffffffffffffffffffffffffffffffffffff19166020820180517bffffffffffffffffffffffffffffffffffffffffffffffffffffffff8381831617835250505050613582565b50565b6133b982826040518060200160405280600081525061373d565b5050565b6133c6826126af565b613405576040517f08c379a00000000000000000000000000000000000000000000000000000000081526004016133fc9061549f565b60405180910390fd5b8060066000848152602001908152602001600020908051906020019061342c929190613a1b565b505050565b6001816000016000828254019250508190555050565b6134df828260405160240161345d9291906154bf565b6040516020818303038152906040527f319af333000000000000000000000000000000000000000000000000000000007bffffffffffffffffffffffffffffffffffffffffffffffffffffffff19166020820180517bffffffffffffffffffffffffffffffffffffffffffffffffffffffff8381831617835250505050613582565b5050565b61357d8383836040516024016134fb939291906154ef565b6040516020818303038152906040527fa3f5c739000000000000000000000000000000000000000000000000000000007bffffffffffffffffffffffffffffffffffffffffffffffffffffffff19166020820180517bffffffffffffffffffffffffffffffffffffffffffffffffffffffff8381831617835250505050613582565b505050565b60008151905060006a636f6e736f6c652e6c6f679050602083016000808483855afa5050505050565b505050565b505050565b60006135d68473ffffffffffffffffffffffffffffffffffffffff16613798565b15613730578373ffffffffffffffffffffffffffffffffffffffff1663150b7a026135ff61271b565b8786866040518563ffffffff1660e01b81526004016136219493929190615589565b6020604051808303816000875af192505050801561365d57506040513d601f19601f8201168201806040525081019061365a91906155ea565b60015b6136e0573d806000811461368d576040519150601f19603f3d011682016040523d82523d6000602084013e613692565b606091505b506000815114156136d8576040517f08c379a00000000000000000000000000000000000000000000000000000000081526004016136cf90615236565b60405180910390fd5b805181602001fd5b63150b7a0260e01b7bffffffffffffffffffffffffffffffffffffffffffffffffffffffff1916817bffffffffffffffffffffffffffffffffffffffffffffffffffffffff191614915050613735565b600190505b949350505050565b61374783836137bb565b61375460008484846135b5565b613793576040517f08c379a000000000000000000000000000000000000000000000000000000000815260040161378a90615236565b60405180910390fd5b505050565b6000808273ffffffffffffffffffffffffffffffffffffffff163b119050919050565b600073ffffffffffffffffffffffffffffffffffffffff168273ffffffffffffffffffffffffffffffffffffffff16141561382b576040517f08c379a000000000000000000000000000000000000000000000000000000000815260040161382290615663565b60405180910390fd5b613834816126af565b15613874576040517f08c379a000000000000000000000000000000000000000000000000000000000815260040161386b906156cf565b60405180910390fd5b613880600083836135ab565b6001600360008473ffffffffffffffffffffffffffffffffffffffff1673ffffffffffffffffffffffffffffffffffffffff16815260200190815260200160002060008282546138d09190615102565b92505081905550816002600083815260200190815260200160002060006101000a81548173ffffffffffffffffffffffffffffffffffffffff021916908373ffffffffffffffffffffffffffffffffffffffff160217905550808273ffffffffffffffffffffffffffffffffffffffff16600073ffffffffffffffffffffffffffffffffffffffff167fddf252ad1be2c89b69c2b068fc378daa952ba7f163c4a11628f55a4df523b3ef60405160405180910390a4613991600083836135b0565b5050565b8280546139a190614432565b90600052602060002090601f0160209004810192826139c35760008555613a0a565b82601f106139dc57803560ff1916838001178555613a0a565b82800160010185558215613a0a579182015b82811115613a095782358255916020019190600101906139ee565b5b509050613a179190613aa1565b5090565b828054613a2790614432565b90600052602060002090601f016020900481019282613a495760008555613a90565b82601f10613a6257805160ff1916838001178555613a90565b82800160010185558215613a90579182015b82811115613a8f578251825591602001919060010190613a74565b5b509050613a9d9190613aa1565b5090565b5b80821115613aba576000816000905550600101613aa2565b5090565b6000604051905090565b600080fd5b600080fd5b60007fffffffff0000000000000000000000000000000000000000000000000000000082169050919050565b613b0781613ad2565b8114613b1257600080fd5b50565b600081359050613b2481613afe565b92915050565b600060208284031215613b4057613b3f613ac8565b5b6000613b4e84828501613b15565b91505092915050565b60008115159050919050565b613b6c81613b57565b82525050565b6000602082019050613b876000830184613b63565b92915050565b600081519050919050565b600082825260208201905092915050565b60005b83811015613bc7578082015181840152602081019050613bac565b83811115613bd6576000848401525b50505050565b6000601f19601f8301169050919050565b6000613bf882613b8d565b613c028185613b98565b9350613c12818560208601613ba9565b613c1b81613bdc565b840191505092915050565b60006020820190508181036000830152613c408184613bed565b905092915050565b6000819050919050565b613c5b81613c48565b8114613c6657600080fd5b50565b600081359050613c7881613c52565b92915050565b600060208284031215613c9457613c93613ac8565b5b6000613ca284828501613c69565b91505092915050565b600073ffffffffffffffffffffffffffffffffffffffff82169050919050565b6000613cd682613cab565b9050919050565b613ce681613ccb565b82525050565b6000602082019050613d016000830184613cdd565b92915050565b613d1081613ccb565b8114613d1b57600080fd5b50565b600081359050613d2d81613d07565b92915050565b60008060408385031215613d4a57613d49613ac8565b5b6000613d5885828601613d1e565b9250506020613d6985828601613c69565b9150509250929050565b600080fd5b600080fd5b600080fd5b60008083601f840112613d9857613d97613d73565b5b8235905067ffffffffffffffff811115613db557613db4613d78565b5b602083019150836001820283011115613dd157613dd0613d7d565b5b9250929050565b60008060208385031215613def57613dee613ac8565b5b600083013567ffffffffffffffff811115613e0d57613e0c613acd565b5b613e1985828601613d82565b92509250509250929050565b600080600060608486031215613e3e57613e3d613ac8565b5b6000613e4c86828701613d1e565b9350506020613e5d86828701613d1e565b9250506040613e6e86828701613c69565b9150509250925092565b600080fd5b7f4e487b7100000000000000000000000000000000000000000000000000000000600052604160045260246000fd5b613eb582613bdc565b810181811067ffffffffffffffff82111715613ed457613ed3613e7d565b5b80604052505050565b6000613ee7613abe565b9050613ef38282613eac565b919050565b600067ffffffffffffffff821115613f1357613f12613e7d565b5b613f1c82613bdc565b9050602081019050919050565b82818337600083830152505050565b6000613f4b613f4684613ef8565b613edd565b905082815260208101848484011115613f6757613f66613e78565b5b613f72848285613f29565b509392505050565b600082601f830112613f8f57613f8e613d73565b5b8135613f9f848260208601613f38565b91505092915050565b600060208284031215613fbe57613fbd613ac8565b5b600082013567ffffffffffffffff811115613fdc57613fdb613acd565b5b613fe884828501613f7a565b91505092915050565b6000806000806040858703121561400b5761400a613ac8565b5b600085013567ffffffffffffffff81111561402957614028613acd565b5b61403587828801613d82565b9450945050602085013567ffffffffffffffff81111561405857614057613acd565b5b61406487828801613d82565b925092505092959194509250565b60006020828403121561408857614087613ac8565b5b600061409684828501613d1e565b91505092915050565b6140a881613c48565b82525050565b60006020820190506140c3600083018461409f565b92915050565b60006140d482613cab565b9050919050565b6140e4816140c9565b82525050565b60006020820190506140ff60008301846140db565b92915050565b61410e81613b57565b811461411957600080fd5b50565b60008135905061412b81614105565b92915050565b6000806040838503121561414857614147613ac8565b5b600061415685828601613d1e565b92505060206141678582860161411c565b9150509250929050565b600067ffffffffffffffff82111561418c5761418b613e7d565b5b61419582613bdc565b9050602081019050919050565b60006141b56141b084614171565b613edd565b9050828152602081018484840111156141d1576141d0613e78565b5b6141dc848285613f29565b509392505050565b600082601f8301126141f9576141f8613d73565b5b81356142098482602086016141a2565b91505092915050565b6000806000806080858703121561422c5761422b613ac8565b5b600061423a87828801613d1e565b945050602061424b87828801613d1e565b935050604061425c87828801613c69565b925050606085013567ffffffffffffffff81111561427d5761427c613acd565b5b614289878288016141e4565b91505092959194509250565b600080604083850312156142ac576142ab613ac8565b5b60006142ba85828601613d1e565b92505060206142cb85828601613d1e565b9150509250929050565b600081519050919050565b600082825260208201905092915050565b6000819050602082019050919050565b600082825260208201905092915050565b600061431d82613b8d565b6143278185614301565b9350614337818560208601613ba9565b61434081613bdc565b840191505092915050565b60006143578383614312565b905092915050565b6000602082019050919050565b6000614377826142d5565b61438181856142e0565b935083602082028501614393856142f1565b8060005b858110156143cf57848403895281516143b0858261434b565b94506143bb8361435f565b925060208a01995050600181019050614397565b50829750879550505050505092915050565b600060208201905081810360008301526143fb818461436c565b905092915050565b7f4e487b7100000000000000000000000000000000000000000000000000000000600052602260045260246000fd5b6000600282049050600182168061444a57607f821691505b6020821081141561445e5761445d614403565b5b50919050565b7f4552433732313a20617070726f76656420717565727920666f72206e6f6e657860008201527f697374656e7420746f6b656e0000000000000000000000000000000000000000602082015250565b60006144c0602c83613b98565b91506144cb82614464565b604082019050919050565b600060208201905081810360008301526144ef816144b3565b9050919050565b7f4552433732313a20617070726f76616c20746f2063757272656e74206f776e6560008201527f7200000000000000000000000000000000000000000000000000000000000000602082015250565b6000614552602183613b98565b915061455d826144f6565b604082019050919050565b6000602082019050818103600083015261458181614545565b9050919050565b7f4552433732313a20617070726f76652063616c6c6572206973206e6f74206f7760008201527f6e6572206e6f7220617070726f76656420666f7220616c6c0000000000000000602082015250565b60006145e4603883613b98565b91506145ef82614588565b604082019050919050565b60006020820190508181036000830152614613816145d7565b9050919050565b600081905092915050565b6000614631838561461a565b935061463e838584613f29565b82840190509392505050565b6000614657828486614625565b91508190509392505050565b7f4552433732313a207472616e736665722063616c6c6572206973206e6f74206f60008201527f776e6572206e6f7220617070726f766564000000000000000000000000000000602082015250565b60006146bf603183613b98565b91506146ca82614663565b604082019050919050565b600060208201905081810360008301526146ee816146b2565b9050919050565b600081905092915050565b50565b60006147106000836146f5565b915061471b82614700565b600082019050919050565b600061473182614703565b9150819050919050565b7f4661696c656420746f207769746864726177204d617469630000000000000000600082015250565b6000614771601883613b98565b915061477c8261473b565b602082019050919050565b600060208201905081810360008301526147a081614764565b9050919050565b7f4552433732313a206f776e657220717565727920666f72206e6f6e657869737460008201527f656e7420746f6b656e0000000000000000000000000000000000000000000000602082015250565b6000614803602983613b98565b915061480e826147a7565b604082019050919050565b60006020820190508181036000830152614832816147f6565b9050919050565b7f4552433732313a2062616c616e636520717565727920666f7220746865207a6560008201527f726f206164647265737300000000000000000000000000000000000000000000602082015250565b6000614895602a83613b98565b91506148a082614839565b604082019050919050565b600060208201905081810360008301526148c481614888565b9050919050565b7f45524337323155524953746f726167653a2055524920717565727920666f722060008201527f6e6f6e6578697374656e7420746f6b656e000000000000000000000000000000602082015250565b6000614927603183613b98565b9150614932826148cb565b604082019050919050565b600060208201905081810360008301526149568161491a565b9050919050565b600061496882613b8d565b614972818561461a565b9350614982818560208601613ba9565b80840191505092915050565b600061499a828561495d565b91506149a6828461495d565b91508190509392505050565b60006149be8385613b98565b93506149cb838584613f29565b6149d483613bdc565b840190509392505050565b600060208201905081810360008301526149fa8184866149b2565b90509392505050565b600081519050614a1281613c52565b92915050565b600060208284031215614a2e57614a2d613ac8565b5b6000614a3c84828501614a03565b91505092915050565b7f4e6f7420656e6f756768204d6174696320706169642000000000000000000000600082015250565b6000614a7b601683613b98565b9150614a8682614a45565b602082019050919050565b60006020820190508181036000830152614aaa81614a6e565b9050919050565b7f2e00000000000000000000000000000000000000000000000000000000000000600082015250565b6000614ae760018361461a565b9150614af282614ab1565b600182019050919050565b60008190508160005260206000209050919050565b60008154614b1f81614432565b614b29818661461a565b94506001821660008114614b445760018114614b5557614b88565b60ff19831686528186019350614b88565b614b5e85614afd565b60005b83811015614b8057815481890152600182019150602081019050614b61565b838801955050505b50505092915050565b6000614b9e828587614625565b9150614ba982614ada565b9150614bb58284614b12565b9150819050949350505050565b6000614bce8286614b12565b9150614bda828561495d565b9150614be68284614b12565b9150819050949350505050565b7f7b226e616d65223a202200000000000000000000000000000000000000000000600082015250565b6000614c29600a8361461a565b9150614c3482614bf3565b600a82019050919050565b7f222c20226465736372697074696f6e223a20224120646f6d61696e206f6e207460008201527f6865207761676d69206e616d652073657276696365222c2022696d616765223a60208201527f2022646174613a696d6167652f7376672b786d6c3b6261736536342c00000000604082015250565b6000614cc1605c8361461a565b9150614ccc82614c3f565b605c82019050919050565b7f222c226c656e677468223a220000000000000000000000000000000000000000600082015250565b6000614d0d600c8361461a565b9150614d1882614cd7565b600c82019050919050565b7f227d000000000000000000000000000000000000000000000000000000000000600082015250565b6000614d5960028361461a565b9150614d6482614d23565b600282019050919050565b6000614d7a82614c1c565b9150614d86828661495d565b9150614d9182614cb4565b9150614d9d828561495d565b9150614da882614d00565b9150614db4828461495d565b9150614dbf82614d4c565b9150819050949350505050565b7f646174613a6170706c69636174696f6e2f6a736f6e3b6261736536342c000000600082015250565b6000614e02601d8361461a565b9150614e0d82614dcc565b601d82019050919050565b6000614e2382614df5565b9150614e2f828461495d565b915081905092915050565b7f4e487b7100000000000000000000000000000000000000000000000000000000600052603260045260246000fd5b7f4e487b7100000000000000000000000000000000000000000000000000000000600052601160045260246000fd5b6000614ea382613c48565b91507fffffffffffffffffffffffffffffffffffffffffffffffffffffffffffffffff821415614ed657614ed5614e69565b5b600182019050919050565b60006040820190508181036000830152614efb8185613bed565b90508181036020830152614f0f8184613bed565b90509392505050565b7f4552433732313a206f70657261746f7220717565727920666f72206e6f6e657860008201527f697374656e7420746f6b656e0000000000000000000000000000000000000000602082015250565b6000614f74602c83613b98565b9150614f7f82614f18565b604082019050919050565b60006020820190508181036000830152614fa381614f67565b9050919050565b7f4552433732313a207472616e736665722066726f6d20696e636f72726563742060008201527f6f776e6572000000000000000000000000000000000000000000000000000000602082015250565b6000615006602583613b98565b915061501182614faa565b604082019050919050565b6000602082019050818103600083015261503581614ff9565b9050919050565b7f4552433732313a207472616e7366657220746f20746865207a65726f2061646460008201527f7265737300000000000000000000000000000000000000000000000000000000602082015250565b6000615098602483613b98565b91506150a38261503c565b604082019050919050565b600060208201905081810360008301526150c78161508b565b9050919050565b60006150d982613c48565b91506150e483613c48565b9250828210156150f7576150f6614e69565b5b828203905092915050565b600061510d82613c48565b915061511883613c48565b9250827fffffffffffffffffffffffffffffffffffffffffffffffffffffffffffffffff0382111561514d5761514c614e69565b5b828201905092915050565b7f4552433732313a20617070726f766520746f2063616c6c657200000000000000600082015250565b600061518e601983613b98565b915061519982615158565b602082019050919050565b600060208201905081810360008301526151bd81615181565b9050919050565b7f4552433732313a207472616e7366657220746f206e6f6e20455243373231526560008201527f63656976657220696d706c656d656e7465720000000000000000000000000000602082015250565b6000615220603283613b98565b915061522b826151c4565b604082019050919050565b6000602082019050818103600083015261524f81615213565b9050919050565b7f4552433732314d657461646174613a2055524920717565727920666f72206e6f60008201527f6e6578697374656e7420746f6b656e0000000000000000000000000000000000602082015250565b60006152b2602f83613b98565b91506152bd82615256565b604082019050919050565b600060208201905081810360008301526152e1816152a5565b9050919050565b7f4e487b7100000000000000000000000000000000000000000000000000000000600052601260045260246000fd5b600061532282613c48565b915061532d83613c48565b92508261533d5761533c6152e8565b5b828204905092915050565b600061535382613c48565b915061535e83613c48565b92508261536e5761536d6152e8565b5b828206905092915050565b600060808201905081810360008301526153938187613bed565b905081810360208301526153a78186613bed565b905081810360408301526153bb8185613bed565b90506153ca606083018461409f565b95945050505050565b60006153de82613c48565b91506153e983613c48565b9250817fffffffffffffffffffffffffffffffffffffffffffffffffffffffffffffffff048311821515161561542257615421614e69565b5b828202905092915050565b7f45524337323155524953746f726167653a2055524920736574206f66206e6f6e60008201527f6578697374656e7420746f6b656e000000000000000000000000000000000000602082015250565b6000615489602e83613b98565b91506154948261542d565b604082019050919050565b600060208201905081810360008301526154b88161547c565b9050919050565b600060408201905081810360008301526154d98185613bed565b90506154e86020830184613cdd565b9392505050565b600060608201905081810360008301526155098186613bed565b9050615518602083018561409f565b818103604083015261552a8184613bed565b9050949350505050565b600081519050919050565b600082825260208201905092915050565b600061555b82615534565b615565818561553f565b9350615575818560208601613ba9565b61557e81613bdc565b840191505092915050565b600060808201905061559e6000830187613cdd565b6155ab6020830186613cdd565b6155b8604083018561409f565b81810360608301526155ca8184615550565b905095945050505050565b6000815190506155e481613afe565b92915050565b600060208284031215615600576155ff613ac8565b5b600061560e848285016155d5565b91505092915050565b7f4552433732313a206d696e7420746f20746865207a65726f2061646472657373600082015250565b600061564d602083613b98565b915061565882615617565b602082019050919050565b6000602082019050818103600083015261567c81615640565b9050919050565b7f4552433732313a20746f6b656e20616c7265616479206d696e74656400000000600082015250565b60006156b9601c83613b98565b91506156c482615683565b602082019050919050565b600060208201905081810360008301526156e8816156ac565b905091905056fe0a2d2d2d2d2d2d2d2d2d2d2d2d2d2d2d2d2d2d2d2d2d2d2d2d2d2d2d2d2d2d2d2d2d2d2d2d2d2d2d2d2d2d2d2d2d2d2d2d2d2d2d2d2d2d2d2d5265676973746572696e672025732e2573206f6e2074686520636f6e7472616374207769746820746f6b656e49442025642d2d2d2d2d2d2d2d2d2d2d2d2d2d2d2d2d2d2d2d2d2d2d2d2d2d2d2d2d2d2d2d2d2d2d2d2d2d2d2d2d2d2d2d2d2d2d2d2d2d2d2d2d2d2d2d0a4142434445464748494a4b4c4d4e4f505152535455565758595a6162636465666768696a6b6c6d6e6f707172737475767778797a303132333435363738392b2fa2646970667358221220aab9cbacd5fea8a27cfe7083ae673363e4e516a363b5f8f7046837855ec5c2dd64736f6c634300080a00333c73766720786d6c6e733d22687474703a2f2f7777772e77332e6f72672f323030302f737667222077696474683d2232373022206865696768743d22323730222066696c6c3d226e6f6e65223e3c706174682066696c6c3d2275726c282361292220643d224d302030683237307632373048307a222f3e3c646566733e3c66696c7465722069643d22622220636f6c6f722d696e746572706f6c6174696f6e2d66696c746572733d2273524742222066696c746572556e6974733d227573657253706163654f6e55736522206865696768743d22323730222077696474683d22323730223e3c666544726f70536861646f772064783d2230222064793d22312220737464446576696174696f6e3d22322220666c6f6f642d6f7061636974793d222e323235222077696474683d223230302522206865696768743d2232303025222f3e3c2f66696c7465723e3c2f646566733e3c7061746820643d224d37322e3836332034322e39343961342e33383220342e3338322030203020302d342e33393420306c2d31302e30383120362e3033322d362e383520332e3933342d31302e30383120362e30333261342e33383220342e3338322030203020312d342e33393420306c2d382e3031332d342e37323161342e353220342e35322030203020312d312e3538392d312e36313620342e353420342e35342030203020312d2e3630382d322e313837762d392e333161342e323720342e3237203020302031202e3537322d322e32303820342e323520342e323520302030203120312e3632352d312e3539356c372e3838342d342e353961342e33383220342e33383220302030203120342e33393420306c372e38383420342e353961342e353220342e353220302030203120312e35383920312e36313620342e353420342e3534203020302031202e36303820322e31383776362e3033326c362e38352d342e303635762d362e30333261342e323720342e32372030203020302d2e3537322d322e32303820342e323520342e32352030203020302d312e3632352d312e3539354c34312e3435362032342e353961342e33383220342e3338322030203020302d342e33393420306c2d31342e38363420382e36353561342e323520342e32352030203020302d312e36323520312e35393520342e32373320342e3237332030203020302d2e35373220322e3230387631372e34343161342e323720342e3237203020302030202e35373220322e32303820342e323520342e323520302030203020312e36323520312e3539356c31342e38363420382e36353561342e33383220342e33383220302030203020342e33393420306c31302e3038312d352e39303120362e38352d342e3036352031302e3038312d352e39303161342e33383220342e33383220302030203120342e33393420306c372e38383420342e353961342e353220342e353220302030203120312e35383920312e36313620342e353420342e3534203020302031202e36303820322e31383776392e33313161342e323720342e32372030203020312d2e35373220322e32303820342e323520342e32352030203020312d312e36323520312e3539356c2d372e38383420342e37323161342e33383220342e3338322030203020312d342e33393420306c2d372e3838342d342e353961342e353220342e35322030203020312d312e3538392d312e36313620342e353320342e35332030203020312d2e3630382d322e313837762d362e3033326c2d362e383520342e30363576362e30333261342e323720342e3237203020302030202e35373220322e32303820342e323520342e323520302030203020312e36323520312e3539356c31342e38363420382e36353561342e33383220342e33383220302030203020342e33393420306c31342e3836342d382e36353561342e35343520342e35343520302030203020322e3139382d332e3830335635352e35333861342e323720342e32372030203020302d2e3537322d322e32303820342e323520342e32352030203020302d312e3632352d312e3539356c2d31342e3939332d382e3738367a222066696c6c3d2223666666222f3e3c646566733e3c6c696e6561724772616469656e742069643d2261222078313d2230222079313d2230222078323d22323730222079323d2232373022206772616469656e74556e6974733d227573657253706163654f6e557365223e3c73746f702f3e3c73746f70206f66667365743d2231222073746f702d636f6c6f723d2223464638363232222f3e3c2f6c696e6561724772616469656e743e3c2f646566733e3c7465787420783d2233322e352220793d223233312220666f6e742d73697a653d223234222066696c6c3d2223666666222066696c7465723d2275726c282362292220666f6e742d66616d696c793d22506c7573204a616b617274612053616e732c44656a6156752053616e732c4e6f746f20436f6c6f7220456d6f6a692c4170706c6520436f6c6f7220456d6f6a692c73616e732d73657269662220666f6e742d7765696768743d22626f6c64223e",
  "linkReferences": {},
  "deployedLinkReferences": {}
}